{
  "contractName": "ezeyNftEvent",
  "abi": [
    {
      "anonymous": false,
      "inputs": [
        {
          "indexed": false,
          "internalType": "string",
          "name": "name",
          "type": "string"
        },
        {
          "indexed": false,
          "internalType": "string",
          "name": "symbol",
          "type": "string"
        },
        {
          "indexed": false,
          "internalType": "string",
          "name": "tokenURI",
          "type": "string"
        },
        {
          "indexed": false,
          "internalType": "string",
          "name": "description",
          "type": "string"
        },
        {
          "indexed": false,
          "internalType": "uint256",
          "name": "walletID",
          "type": "uint256"
        },
        {
          "indexed": false,
          "internalType": "address",
          "name": "addressWallet",
          "type": "address"
        }
      ],
      "name": "newCollection",
      "type": "event"
    },
    {
      "inputs": [
        {
          "internalType": "string",
          "name": "name",
          "type": "string"
        },
        {
          "internalType": "string",
          "name": "symbol",
          "type": "string"
        },
        {
          "internalType": "string",
          "name": "tokenURI",
          "type": "string"
        },
        {
          "internalType": "string",
          "name": "description",
          "type": "string"
        },
        {
          "internalType": "uint256",
          "name": "walletID",
          "type": "uint256"
        },
        {
          "internalType": "address",
          "name": "addressWallet",
          "type": "address"
        }
      ],
      "name": "newEvent",
      "outputs": [],
      "stateMutability": "nonpayable",
      "type": "function"
    }
  ],
  "bytecode": "0x608060405234801561001057600080fd5b506104d9806100206000396000f3fe608060405234801561001057600080fd5b506004361061002b5760003560e01c8063fd54dab214610030575b600080fd5b61004a60048036038101906100459190610283565b61004c565b005b7fd2f2e828384fbfa91579e69af766e38a4515dd42f6792ce29cefca40212b373086868686868660405161008596959493929190610426565b60405180910390a1505050505050565b6000604051905090565b600080fd5b600080fd5b600080fd5b600080fd5b6000601f19601f8301169050919050565b7f4e487b7100000000000000000000000000000000000000000000000000000000600052604160045260246000fd5b6100fc826100b3565b810181811067ffffffffffffffff8211171561011b5761011a6100c4565b5b80604052505050565b600061012e610095565b905061013a82826100f3565b919050565b600067ffffffffffffffff82111561015a576101596100c4565b5b610163826100b3565b9050602081019050919050565b82818337600083830152505050565b600061019261018d8461013f565b610124565b9050828152602081018484840111156101ae576101ad6100ae565b5b6101b9848285610170565b509392505050565b600082601f8301126101d6576101d56100a9565b5b81356101e684826020860161017f565b91505092915050565b6000819050919050565b610202816101ef565b811461020d57600080fd5b50565b60008135905061021f816101f9565b92915050565b600073ffffffffffffffffffffffffffffffffffffffff82169050919050565b600061025082610225565b9050919050565b61026081610245565b811461026b57600080fd5b50565b60008135905061027d81610257565b92915050565b60008060008060008060c087890312156102a05761029f61009f565b5b600087013567ffffffffffffffff8111156102be576102bd6100a4565b5b6102ca89828a016101c1565b965050602087013567ffffffffffffffff8111156102eb576102ea6100a4565b5b6102f789828a016101c1565b955050604087013567ffffffffffffffff811115610318576103176100a4565b5b61032489828a016101c1565b945050606087013567ffffffffffffffff811115610345576103446100a4565b5b61035189828a016101c1565b935050608061036289828a01610210565b92505060a061037389828a0161026e565b9150509295509295509295565b600081519050919050565b600082825260208201905092915050565b60005b838110156103ba57808201518184015260208101905061039f565b838111156103c9576000848401525b50505050565b60006103da82610380565b6103e4818561038b565b93506103f481856020860161039c565b6103fd816100b3565b840191505092915050565b610411816101ef565b82525050565b61042081610245565b82525050565b600060c082019050818103600083015261044081896103cf565b9050818103602083015261045481886103cf565b9050818103604083015261046881876103cf565b9050818103606083015261047c81866103cf565b905061048b6080830185610408565b61049860a0830184610417565b97965050505050505056fea2646970667358221220976fb6c33f2ba4f9e41a9cd0462cbca16476c129d23b2fe80635c49b71a83cb964736f6c634300080f0033",
  "immutableReferences": {},
  "source": "// SPDX-License-Identifier: MIT\r\npragma solidity >=0.4.22 <0.9.0;\r\n\r\ncontract ezeyNftEvent{\r\n\r\n    event newCollection(string name,string symbol,string tokenURI,string description,uint256 walletID,address addressWallet);\r\n\r\n    function newEvent(string memory name,string memory symbol, string memory tokenURI,string memory description,uint256 walletID,address addressWallet)external{\r\n       emit newCollection(name,symbol,tokenURI,description,walletID,addressWallet);\r\n  }\r\n }",
  "sourcePath": "C:\\Users\\Asalef alena\\Desktop\\ezeyNFT\\smart_contract\\contracts\\ezeyNftEvent.sol",
  "compiler": {
    "name": "solc",
    "version": "0.8.15+commit.e14f2714.Emscripten.clang"
  },
  "schemaVersion": "3.4.8",
  "updatedAt": "2022-10-29T20:46:28.107Z",
  "devdoc": {
    "kind": "dev",
    "methods": {},
    "version": 1
  },
  "userdoc": {
    "kind": "user",
    "methods": {},
    "version": 1
  }
}