{
  "contractName": "ezeyNFT",
  "abi": [
    {
      "inputs": [
        {
          "internalType": "string",
          "name": "name",
          "type": "string"
        },
        {
          "internalType": "string",
          "name": "symbol",
          "type": "string"
        },
        {
          "internalType": "uint256",
          "name": "walletID",
          "type": "uint256"
        }
      ],
      "stateMutability": "nonpayable",
      "type": "constructor"
    },
    {
      "anonymous": false,
      "inputs": [
        {
          "indexed": true,
          "internalType": "address",
          "name": "owner",
          "type": "address"
        },
        {
          "indexed": true,
          "internalType": "address",
          "name": "approved",
          "type": "address"
        },
        {
          "indexed": true,
          "internalType": "uint256",
          "name": "tokenId",
          "type": "uint256"
        }
      ],
      "name": "Approval",
      "type": "event"
    },
    {
      "anonymous": false,
      "inputs": [
        {
          "indexed": true,
          "internalType": "address",
          "name": "owner",
          "type": "address"
        },
        {
          "indexed": true,
          "internalType": "address",
          "name": "operator",
          "type": "address"
        },
        {
          "indexed": false,
          "internalType": "bool",
          "name": "approved",
          "type": "bool"
        }
      ],
      "name": "ApprovalForAll",
      "type": "event"
    },
    {
      "anonymous": false,
      "inputs": [
        {
          "indexed": true,
          "internalType": "address",
          "name": "from",
          "type": "address"
        },
        {
          "indexed": true,
          "internalType": "address",
          "name": "to",
          "type": "address"
        },
        {
          "indexed": true,
          "internalType": "uint256",
          "name": "tokenId",
          "type": "uint256"
        }
      ],
      "name": "Transfer",
      "type": "event"
    },
    {
      "inputs": [
        {
          "internalType": "address",
          "name": "to",
          "type": "address"
        },
        {
          "internalType": "uint256",
          "name": "tokenId",
          "type": "uint256"
        }
      ],
      "name": "approve",
      "outputs": [],
      "stateMutability": "nonpayable",
      "type": "function"
    },
    {
      "inputs": [
        {
          "internalType": "address",
          "name": "owner",
          "type": "address"
        }
      ],
      "name": "balanceOf",
      "outputs": [
        {
          "internalType": "uint256",
          "name": "",
          "type": "uint256"
        }
      ],
      "stateMutability": "view",
      "type": "function"
    },
    {
      "inputs": [
        {
          "internalType": "uint256",
          "name": "tokenId",
          "type": "uint256"
        }
      ],
      "name": "getApproved",
      "outputs": [
        {
          "internalType": "address",
          "name": "",
          "type": "address"
        }
      ],
      "stateMutability": "view",
      "type": "function"
    },
    {
      "inputs": [
        {
          "internalType": "address",
          "name": "owner",
          "type": "address"
        },
        {
          "internalType": "address",
          "name": "operator",
          "type": "address"
        }
      ],
      "name": "isApprovedForAll",
      "outputs": [
        {
          "internalType": "bool",
          "name": "",
          "type": "bool"
        }
      ],
      "stateMutability": "view",
      "type": "function"
    },
    {
      "inputs": [],
      "name": "name",
      "outputs": [
        {
          "internalType": "string",
          "name": "",
          "type": "string"
        }
      ],
      "stateMutability": "view",
      "type": "function"
    },
    {
      "inputs": [
        {
          "internalType": "uint256",
          "name": "tokenId",
          "type": "uint256"
        }
      ],
      "name": "ownerOf",
      "outputs": [
        {
          "internalType": "address",
          "name": "",
          "type": "address"
        }
      ],
      "stateMutability": "view",
      "type": "function"
    },
    {
      "inputs": [
        {
          "internalType": "address",
          "name": "from",
          "type": "address"
        },
        {
          "internalType": "address",
          "name": "to",
          "type": "address"
        },
        {
          "internalType": "uint256",
          "name": "tokenId",
          "type": "uint256"
        }
      ],
      "name": "safeTransferFrom",
      "outputs": [],
      "stateMutability": "nonpayable",
      "type": "function"
    },
    {
      "inputs": [
        {
          "internalType": "address",
          "name": "from",
          "type": "address"
        },
        {
          "internalType": "address",
          "name": "to",
          "type": "address"
        },
        {
          "internalType": "uint256",
          "name": "tokenId",
          "type": "uint256"
        },
        {
          "internalType": "bytes",
          "name": "data",
          "type": "bytes"
        }
      ],
      "name": "safeTransferFrom",
      "outputs": [],
      "stateMutability": "nonpayable",
      "type": "function"
    },
    {
      "inputs": [
        {
          "internalType": "address",
          "name": "operator",
          "type": "address"
        },
        {
          "internalType": "bool",
          "name": "approved",
          "type": "bool"
        }
      ],
      "name": "setApprovalForAll",
      "outputs": [],
      "stateMutability": "nonpayable",
      "type": "function"
    },
    {
      "inputs": [
        {
          "internalType": "bytes4",
          "name": "interfaceId",
          "type": "bytes4"
        }
      ],
      "name": "supportsInterface",
      "outputs": [
        {
          "internalType": "bool",
          "name": "",
          "type": "bool"
        }
      ],
      "stateMutability": "view",
      "type": "function"
    },
    {
      "inputs": [],
      "name": "symbol",
      "outputs": [
        {
          "internalType": "string",
          "name": "",
          "type": "string"
        }
      ],
      "stateMutability": "view",
      "type": "function"
    },
    {
      "inputs": [
        {
          "internalType": "uint256",
          "name": "tokenId",
          "type": "uint256"
        }
      ],
      "name": "tokenURI",
      "outputs": [
        {
          "internalType": "string",
          "name": "",
          "type": "string"
        }
      ],
      "stateMutability": "view",
      "type": "function"
    },
    {
      "inputs": [
        {
          "internalType": "address",
          "name": "from",
          "type": "address"
        },
        {
          "internalType": "address",
          "name": "to",
          "type": "address"
        },
        {
          "internalType": "uint256",
          "name": "tokenId",
          "type": "uint256"
        }
      ],
      "name": "transferFrom",
      "outputs": [],
      "stateMutability": "nonpayable",
      "type": "function"
    },
    {
      "inputs": [
        {
          "internalType": "string",
          "name": "tokenURI",
          "type": "string"
        },
        {
          "internalType": "string",
          "name": "description",
          "type": "string"
        }
      ],
      "name": "mintNFT",
      "outputs": [],
      "stateMutability": "nonpayable",
      "type": "function"
    },
    {
      "inputs": [],
      "name": "tokenCounterNumber",
      "outputs": [
        {
          "internalType": "uint256",
          "name": "",
          "type": "uint256"
        }
      ],
      "stateMutability": "view",
      "type": "function"
    }
  ],
  "bytecode": "0x60806040523480156200001157600080fd5b50604051620032ad380380620032ad8339818101604052810190620000379190620002c8565b828281600090816200004a9190620005a3565b5080600190816200005c9190620005a3565b5050508260079081620000709190620005a3565b508160089081620000829190620005a3565b5080600981905550732bf63f3dbfdabe7103b1cbd9982ac62356295b7e600660006101000a81548173ffffffffffffffffffffffffffffffffffffffff021916908373ffffffffffffffffffffffffffffffffffffffff1602179055506000600a819055505050506200068a565b6000604051905090565b600080fd5b600080fd5b600080fd5b600080fd5b6000601f19601f8301169050919050565b7f4e487b7100000000000000000000000000000000000000000000000000000000600052604160045260246000fd5b62000159826200010e565b810181811067ffffffffffffffff821117156200017b576200017a6200011f565b5b80604052505050565b600062000190620000f0565b90506200019e82826200014e565b919050565b600067ffffffffffffffff821115620001c157620001c06200011f565b5b620001cc826200010e565b9050602081019050919050565b60005b83811015620001f9578082015181840152602081019050620001dc565b8381111562000209576000848401525b50505050565b6000620002266200022084620001a3565b62000184565b90508281526020810184848401111562000245576200024462000109565b5b62000252848285620001d9565b509392505050565b600082601f83011262000272576200027162000104565b5b8151620002848482602086016200020f565b91505092915050565b6000819050919050565b620002a2816200028d565b8114620002ae57600080fd5b50565b600081519050620002c28162000297565b92915050565b600080600060608486031215620002e457620002e3620000fa565b5b600084015167ffffffffffffffff811115620003055762000304620000ff565b5b62000313868287016200025a565b935050602084015167ffffffffffffffff811115620003375762000336620000ff565b5b62000345868287016200025a565b92505060406200035886828701620002b1565b9150509250925092565b600081519050919050565b7f4e487b7100000000000000000000000000000000000000000000000000000000600052602260045260246000fd5b60006002820490506001821680620003b557607f821691505b602082108103620003cb57620003ca6200036d565b5b50919050565b60008190508160005260206000209050919050565b60006020601f8301049050919050565b600082821b905092915050565b600060088302620004357fffffffffffffffffffffffffffffffffffffffffffffffffffffffffffffffff82620003f6565b620004418683620003f6565b95508019841693508086168417925050509392505050565b6000819050919050565b6000620004846200047e62000478846200028d565b62000459565b6200028d565b9050919050565b6000819050919050565b620004a08362000463565b620004b8620004af826200048b565b84845462000403565b825550505050565b600090565b620004cf620004c0565b620004dc81848462000495565b505050565b5b818110156200050457620004f8600082620004c5565b600181019050620004e2565b5050565b601f82111562000553576200051d81620003d1565b6200052884620003e6565b8101602085101562000538578190505b620005506200054785620003e6565b830182620004e1565b50505b505050565b600082821c905092915050565b6000620005786000198460080262000558565b1980831691505092915050565b600062000593838362000565565b9150826002028217905092915050565b620005ae8262000362565b67ffffffffffffffff811115620005ca57620005c96200011f565b5b620005d682546200039c565b620005e382828562000508565b600060209050601f8311600181146200061b576000841562000606578287015190505b62000612858262000585565b86555062000682565b601f1984166200062b86620003d1565b60005b8281101562000655578489015182556001820191506020850194506020810190506200062e565b8683101562000675578489015162000671601f89168262000565565b8355505b6001600288020188555050505b505050505050565b612c13806200069a6000396000f3fe608060405234801561001057600080fd5b50600436106100f55760003560e01c80636352211e11610097578063b88d4fde11610066578063b88d4fde14610284578063c87b56dd146102a0578063e9605544146102d0578063e985e9c5146102ec576100f5565b80636352211e146101ea57806370a082311461021a57806395d89b411461024a578063a22cb46514610268576100f5565b8063095ea7b3116100d3578063095ea7b31461017857806323b872dd1461019457806342842e0e146101b05780634501589a146101cc576100f5565b806301ffc9a7146100fa57806306fdde031461012a578063081812fc14610148575b600080fd5b610114600480360381019061010f9190611897565b61031c565b60405161012191906118df565b60405180910390f35b6101326103fe565b60405161013f9190611993565b60405180910390f35b610162600480360381019061015d91906119eb565b610490565b60405161016f9190611a59565b60405180910390f35b610192600480360381019061018d9190611aa0565b6104d6565b005b6101ae60048036038101906101a99190611ae0565b6105ed565b005b6101ca60048036038101906101c59190611ae0565b61064d565b005b6101d461066d565b6040516101e19190611b42565b60405180910390f35b61020460048036038101906101ff91906119eb565b610677565b6040516102119190611a59565b60405180910390f35b610234600480360381019061022f9190611b5d565b610728565b6040516102419190611b42565b60405180910390f35b6102526107df565b60405161025f9190611993565b60405180910390f35b610282600480360381019061027d9190611bb6565b610871565b005b61029e60048036038101906102999190611d2b565b610887565b005b6102ba60048036038101906102b591906119eb565b6108e9565b6040516102c79190611993565b60405180910390f35b6102ea60048036038101906102e59190611e4f565b610951565b005b61030660048036038101906103019190611ec7565b610a23565b60405161031391906118df565b60405180910390f35b60007f80ac58cd000000000000000000000000000000000000000000000000000000007bffffffffffffffffffffffffffffffffffffffffffffffffffffffff1916827bffffffffffffffffffffffffffffffffffffffffffffffffffffffff191614806103e757507f5b5e139f000000000000000000000000000000000000000000000000000000007bffffffffffffffffffffffffffffffffffffffffffffffffffffffff1916827bffffffffffffffffffffffffffffffffffffffffffffffffffffffff1916145b806103f757506103f682610ab7565b5b9050919050565b60606000805461040d90611f36565b80601f016020809104026020016040519081016040528092919081815260200182805461043990611f36565b80156104865780601f1061045b57610100808354040283529160200191610486565b820191906000526020600020905b81548152906001019060200180831161046957829003601f168201915b5050505050905090565b600061049b82610b21565b6004600083815260200190815260200160002060009054906101000a900473ffffffffffffffffffffffffffffffffffffffff169050919050565b60006104e182610677565b90508073ffffffffffffffffffffffffffffffffffffffff168373ffffffffffffffffffffffffffffffffffffffff1603610551576040517f08c379a000000000000000000000000000000000000000000000000000000000815260040161054890611fd9565b60405180910390fd5b8073ffffffffffffffffffffffffffffffffffffffff16610570610b6c565b73ffffffffffffffffffffffffffffffffffffffff16148061059f575061059e81610599610b6c565b610a23565b5b6105de576040517f08c379a00000000000000000000000000000000000000000000000000000000081526004016105d59061206b565b60405180910390fd5b6105e88383610b74565b505050565b6105fe6105f8610b6c565b82610c2d565b61063d576040517f08c379a0000000000000000000000000000000000000000000000000000000008152600401610634906120fd565b60405180910390fd5b610648838383610cc2565b505050565b61066883838360405180602001604052806000815250610887565b505050565b6000600a54905090565b6000806002600084815260200190815260200160002060009054906101000a900473ffffffffffffffffffffffffffffffffffffffff169050600073ffffffffffffffffffffffffffffffffffffffff168173ffffffffffffffffffffffffffffffffffffffff160361071f576040517f08c379a000000000000000000000000000000000000000000000000000000000815260040161071690612169565b60405180910390fd5b80915050919050565b60008073ffffffffffffffffffffffffffffffffffffffff168273ffffffffffffffffffffffffffffffffffffffff1603610798576040517f08c379a000000000000000000000000000000000000000000000000000000000815260040161078f906121fb565b60405180910390fd5b600360008373ffffffffffffffffffffffffffffffffffffffff1673ffffffffffffffffffffffffffffffffffffffff168152602001908152602001600020549050919050565b6060600180546107ee90611f36565b80601f016020809104026020016040519081016040528092919081815260200182805461081a90611f36565b80156108675780601f1061083c57610100808354040283529160200191610867565b820191906000526020600020905b81548152906001019060200180831161084a57829003601f168201915b5050505050905090565b61088361087c610b6c565b8383610f28565b5050565b610898610892610b6c565b83610c2d565b6108d7576040517f08c379a00000000000000000000000000000000000000000000000000000000081526004016108ce906120fd565b60405180910390fd5b6108e384848484611094565b50505050565b60606108f482610b21565b60006108fe6110f0565b9050600081511161091e5760405180602001604052806000815250610949565b8061092884611107565b604051602001610939929190612257565b6040516020818303038152906040525b915050919050565b600061095d8383611267565b905061096b33600a546112ba565b600a600081548092919061097e906122aa565b9190505550600660009054906101000a900473ffffffffffffffffffffffffffffffffffffffff1673ffffffffffffffffffffffffffffffffffffffff1663fd54dab2600760088686600954336040518763ffffffff1660e01b81526004016109ec9695949392919061238b565b600060405180830381600087803b158015610a0657600080fd5b505af1158015610a1a573d6000803e3d6000fd5b50505050505050565b6000600560008473ffffffffffffffffffffffffffffffffffffffff1673ffffffffffffffffffffffffffffffffffffffff16815260200190815260200160002060008373ffffffffffffffffffffffffffffffffffffffff1673ffffffffffffffffffffffffffffffffffffffff16815260200190815260200160002060009054906101000a900460ff16905092915050565b60007f01ffc9a7000000000000000000000000000000000000000000000000000000007bffffffffffffffffffffffffffffffffffffffffffffffffffffffff1916827bffffffffffffffffffffffffffffffffffffffffffffffffffffffff1916149050919050565b610b2a81611493565b610b69576040517f08c379a0000000000000000000000000000000000000000000000000000000008152600401610b6090612169565b60405180910390fd5b50565b600033905090565b816004600083815260200190815260200160002060006101000a81548173ffffffffffffffffffffffffffffffffffffffff021916908373ffffffffffffffffffffffffffffffffffffffff160217905550808273ffffffffffffffffffffffffffffffffffffffff16610be783610677565b73ffffffffffffffffffffffffffffffffffffffff167f8c5be1e5ebec7d5bd14f71427d1e84f3dd0314c0f7b2291e5b200ac8c7c3b92560405160405180910390a45050565b600080610c3983610677565b90508073ffffffffffffffffffffffffffffffffffffffff168473ffffffffffffffffffffffffffffffffffffffff161480610c7b5750610c7a8185610a23565b5b80610cb957508373ffffffffffffffffffffffffffffffffffffffff16610ca184610490565b73ffffffffffffffffffffffffffffffffffffffff16145b91505092915050565b8273ffffffffffffffffffffffffffffffffffffffff16610ce282610677565b73ffffffffffffffffffffffffffffffffffffffff1614610d38576040517f08c379a0000000000000000000000000000000000000000000000000000000008152600401610d2f9061247a565b60405180910390fd5b600073ffffffffffffffffffffffffffffffffffffffff168273ffffffffffffffffffffffffffffffffffffffff1603610da7576040517f08c379a0000000000000000000000000000000000000000000000000000000008152600401610d9e9061250c565b60405180910390fd5b610db28383836114ff565b610dbd600082610b74565b6001600360008573ffffffffffffffffffffffffffffffffffffffff1673ffffffffffffffffffffffffffffffffffffffff1681526020019081526020016000206000828254610e0d919061252c565b925050819055506001600360008473ffffffffffffffffffffffffffffffffffffffff1673ffffffffffffffffffffffffffffffffffffffff1681526020019081526020016000206000828254610e649190612560565b92505081905550816002600083815260200190815260200160002060006101000a81548173ffffffffffffffffffffffffffffffffffffffff021916908373ffffffffffffffffffffffffffffffffffffffff160217905550808273ffffffffffffffffffffffffffffffffffffffff168473ffffffffffffffffffffffffffffffffffffffff167fddf252ad1be2c89b69c2b068fc378daa952ba7f163c4a11628f55a4df523b3ef60405160405180910390a4610f23838383611504565b505050565b8173ffffffffffffffffffffffffffffffffffffffff168373ffffffffffffffffffffffffffffffffffffffff1603610f96576040517f08c379a0000000000000000000000000000000000000000000000000000000008152600401610f8d90612602565b60405180910390fd5b80600560008573ffffffffffffffffffffffffffffffffffffffff1673ffffffffffffffffffffffffffffffffffffffff16815260200190815260200160002060008473ffffffffffffffffffffffffffffffffffffffff1673ffffffffffffffffffffffffffffffffffffffff16815260200190815260200160002060006101000a81548160ff0219169083151502179055508173ffffffffffffffffffffffffffffffffffffffff168373ffffffffffffffffffffffffffffffffffffffff167f17307eab39ab6107e8899845ad3d59bd9653f200f220920489ca2b5937696c318360405161108791906118df565b60405180910390a3505050565b61109f848484610cc2565b6110ab84848484611509565b6110ea576040517f08c379a00000000000000000000000000000000000000000000000000000000081526004016110e190612694565b60405180910390fd5b50505050565b606060405180602001604052806000815250905090565b60606000820361114e576040518060400160405280600181526020017f30000000000000000000000000000000000000000000000000000000000000008152509050611262565b600082905060005b60008214611180578080611169906122aa565b915050600a8261117991906126e3565b9150611156565b60008167ffffffffffffffff81111561119c5761119b611c00565b5b6040519080825280601f01601f1916602001820160405280156111ce5781602001600182028036833780820191505090505b5090505b6000851461125b576001826111e7919061252c565b9150600a856111f69190612714565b60306112029190612560565b60f81b81838151811061121857611217612745565b5b60200101907effffffffffffffffffffffffffffffffffffffffffffffffffffffffffffff1916908160001a905350600a8561125491906126e3565b94506111d2565b8093505050505b919050565b6060611293828460405160200161127f9291906128ca565b604051602081830303815290604052611690565b6040516020016112a39190612966565b604051602081830303815290604052905092915050565b600073ffffffffffffffffffffffffffffffffffffffff168273ffffffffffffffffffffffffffffffffffffffff1603611329576040517f08c379a0000000000000000000000000000000000000000000000000000000008152600401611320906129d4565b60405180910390fd5b61133281611493565b15611372576040517f08c379a000000000000000000000000000000000000000000000000000000000815260040161136990612a40565b60405180910390fd5b61137e600083836114ff565b6001600360008473ffffffffffffffffffffffffffffffffffffffff1673ffffffffffffffffffffffffffffffffffffffff16815260200190815260200160002060008282546113ce9190612560565b92505081905550816002600083815260200190815260200160002060006101000a81548173ffffffffffffffffffffffffffffffffffffffff021916908373ffffffffffffffffffffffffffffffffffffffff160217905550808273ffffffffffffffffffffffffffffffffffffffff16600073ffffffffffffffffffffffffffffffffffffffff167fddf252ad1be2c89b69c2b068fc378daa952ba7f163c4a11628f55a4df523b3ef60405160405180910390a461148f60008383611504565b5050565b60008073ffffffffffffffffffffffffffffffffffffffff166002600084815260200190815260200160002060009054906101000a900473ffffffffffffffffffffffffffffffffffffffff1673ffffffffffffffffffffffffffffffffffffffff1614159050919050565b505050565b505050565b600061152a8473ffffffffffffffffffffffffffffffffffffffff16611808565b15611683578373ffffffffffffffffffffffffffffffffffffffff1663150b7a02611553610b6c565b8786866040518563ffffffff1660e01b81526004016115759493929190612ab5565b6020604051808303816000875af19250505080156115b157506040513d601f19601f820116820180604052508101906115ae9190612b16565b60015b611633573d80600081146115e1576040519150601f19603f3d011682016040523d82523d6000602084013e6115e6565b606091505b50600081510361162b576040517f08c379a000000000000000000000000000000000000000000000000000000000815260040161162290612694565b60405180910390fd5b805181602001fd5b63150b7a0260e01b7bffffffffffffffffffffffffffffffffffffffffffffffffffffffff1916817bffffffffffffffffffffffffffffffffffffffffffffffffffffffff191614915050611688565b600190505b949350505050565b606060008251036116b257604051806020016040528060008152509050611803565b6000604051806060016040528060408152602001612b9e60409139905060006003600285516116e19190612560565b6116eb91906126e3565b60046116f79190612b43565b905060006020826117089190612560565b67ffffffffffffffff81111561172157611720611c00565b5b6040519080825280601f01601f1916602001820160405280156117535781602001600182028036833780820191505090505b509050818152600183018586518101602084015b818310156117c2576003830192508251603f8160121c168501518253600182019150603f81600c1c168501518253600182019150603f8160061c168501518253600182019150603f8116850151825360018201915050611767565b6003895106600181146117dc57600281146117ec576117f7565b613d3d60f01b60028303526117f7565b603d60f81b60018303525b50505050508093505050505b919050565b6000808273ffffffffffffffffffffffffffffffffffffffff163b119050919050565b6000604051905090565b600080fd5b600080fd5b60007fffffffff0000000000000000000000000000000000000000000000000000000082169050919050565b6118748161183f565b811461187f57600080fd5b50565b6000813590506118918161186b565b92915050565b6000602082840312156118ad576118ac611835565b5b60006118bb84828501611882565b91505092915050565b60008115159050919050565b6118d9816118c4565b82525050565b60006020820190506118f460008301846118d0565b92915050565b600081519050919050565b600082825260208201905092915050565b60005b83811015611934578082015181840152602081019050611919565b83811115611943576000848401525b50505050565b6000601f19601f8301169050919050565b6000611965826118fa565b61196f8185611905565b935061197f818560208601611916565b61198881611949565b840191505092915050565b600060208201905081810360008301526119ad818461195a565b905092915050565b6000819050919050565b6119c8816119b5565b81146119d357600080fd5b50565b6000813590506119e5816119bf565b92915050565b600060208284031215611a0157611a00611835565b5b6000611a0f848285016119d6565b91505092915050565b600073ffffffffffffffffffffffffffffffffffffffff82169050919050565b6000611a4382611a18565b9050919050565b611a5381611a38565b82525050565b6000602082019050611a6e6000830184611a4a565b92915050565b611a7d81611a38565b8114611a8857600080fd5b50565b600081359050611a9a81611a74565b92915050565b60008060408385031215611ab757611ab6611835565b5b6000611ac585828601611a8b565b9250506020611ad6858286016119d6565b9150509250929050565b600080600060608486031215611af957611af8611835565b5b6000611b0786828701611a8b565b9350506020611b1886828701611a8b565b9250506040611b29868287016119d6565b9150509250925092565b611b3c816119b5565b82525050565b6000602082019050611b576000830184611b33565b92915050565b600060208284031215611b7357611b72611835565b5b6000611b8184828501611a8b565b91505092915050565b611b93816118c4565b8114611b9e57600080fd5b50565b600081359050611bb081611b8a565b92915050565b60008060408385031215611bcd57611bcc611835565b5b6000611bdb85828601611a8b565b9250506020611bec85828601611ba1565b9150509250929050565b600080fd5b600080fd5b7f4e487b7100000000000000000000000000000000000000000000000000000000600052604160045260246000fd5b611c3882611949565b810181811067ffffffffffffffff82111715611c5757611c56611c00565b5b80604052505050565b6000611c6a61182b565b9050611c768282611c2f565b919050565b600067ffffffffffffffff821115611c9657611c95611c00565b5b611c9f82611949565b9050602081019050919050565b82818337600083830152505050565b6000611cce611cc984611c7b565b611c60565b905082815260208101848484011115611cea57611ce9611bfb565b5b611cf5848285611cac565b509392505050565b600082601f830112611d1257611d11611bf6565b5b8135611d22848260208601611cbb565b91505092915050565b60008060008060808587031215611d4557611d44611835565b5b6000611d5387828801611a8b565b9450506020611d6487828801611a8b565b9350506040611d75878288016119d6565b925050606085013567ffffffffffffffff811115611d9657611d9561183a565b5b611da287828801611cfd565b91505092959194509250565b600067ffffffffffffffff821115611dc957611dc8611c00565b5b611dd282611949565b9050602081019050919050565b6000611df2611ded84611dae565b611c60565b905082815260208101848484011115611e0e57611e0d611bfb565b5b611e19848285611cac565b509392505050565b600082601f830112611e3657611e35611bf6565b5b8135611e46848260208601611ddf565b91505092915050565b60008060408385031215611e6657611e65611835565b5b600083013567ffffffffffffffff811115611e8457611e8361183a565b5b611e9085828601611e21565b925050602083013567ffffffffffffffff811115611eb157611eb061183a565b5b611ebd85828601611e21565b9150509250929050565b60008060408385031215611ede57611edd611835565b5b6000611eec85828601611a8b565b9250506020611efd85828601611a8b565b9150509250929050565b7f4e487b7100000000000000000000000000000000000000000000000000000000600052602260045260246000fd5b60006002820490506001821680611f4e57607f821691505b602082108103611f6157611f60611f07565b5b50919050565b7f4552433732313a20617070726f76616c20746f2063757272656e74206f776e6560008201527f7200000000000000000000000000000000000000000000000000000000000000602082015250565b6000611fc3602183611905565b9150611fce82611f67565b604082019050919050565b60006020820190508181036000830152611ff281611fb6565b9050919050565b7f4552433732313a20617070726f76652063616c6c6572206973206e6f7420746f60008201527f6b656e206f776e6572206e6f7220617070726f76656420666f7220616c6c0000602082015250565b6000612055603e83611905565b915061206082611ff9565b604082019050919050565b6000602082019050818103600083015261208481612048565b9050919050565b7f4552433732313a2063616c6c6572206973206e6f7420746f6b656e206f776e6560008201527f72206e6f7220617070726f766564000000000000000000000000000000000000602082015250565b60006120e7602e83611905565b91506120f28261208b565b604082019050919050565b60006020820190508181036000830152612116816120da565b9050919050565b7f4552433732313a20696e76616c696420746f6b656e2049440000000000000000600082015250565b6000612153601883611905565b915061215e8261211d565b602082019050919050565b6000602082019050818103600083015261218281612146565b9050919050565b7f4552433732313a2061646472657373207a65726f206973206e6f74206120766160008201527f6c6964206f776e65720000000000000000000000000000000000000000000000602082015250565b60006121e5602983611905565b91506121f082612189565b604082019050919050565b60006020820190508181036000830152612214816121d8565b9050919050565b600081905092915050565b6000612231826118fa565b61223b818561221b565b935061224b818560208601611916565b80840191505092915050565b60006122638285612226565b915061226f8284612226565b91508190509392505050565b7f4e487b7100000000000000000000000000000000000000000000000000000000600052601160045260246000fd5b60006122b5826119b5565b91507fffffffffffffffffffffffffffffffffffffffffffffffffffffffffffffffff82036122e7576122e661227b565b5b600182019050919050565b60008190508160005260206000209050919050565b6000815461231481611f36565b61231e8186611905565b94506001821660008114612339576001811461234f57612382565b60ff198316865281151560200286019350612382565b612358856122f2565b60005b8381101561237a5781548189015260018201915060208101905061235b565b808801955050505b50505092915050565b600060c08201905081810360008301526123a58189612307565b905081810360208301526123b98188612307565b905081810360408301526123cd818761195a565b905081810360608301526123e1818661195a565b90506123f06080830185611b33565b6123fd60a0830184611a4a565b979650505050505050565b7f4552433732313a207472616e736665722066726f6d20696e636f72726563742060008201527f6f776e6572000000000000000000000000000000000000000000000000000000602082015250565b6000612464602583611905565b915061246f82612408565b604082019050919050565b6000602082019050818103600083015261249381612457565b9050919050565b7f4552433732313a207472616e7366657220746f20746865207a65726f2061646460008201527f7265737300000000000000000000000000000000000000000000000000000000602082015250565b60006124f6602483611905565b91506125018261249a565b604082019050919050565b60006020820190508181036000830152612525816124e9565b9050919050565b6000612537826119b5565b9150612542836119b5565b9250828210156125555761255461227b565b5b828203905092915050565b600061256b826119b5565b9150612576836119b5565b9250827fffffffffffffffffffffffffffffffffffffffffffffffffffffffffffffffff038211156125ab576125aa61227b565b5b828201905092915050565b7f4552433732313a20617070726f766520746f2063616c6c657200000000000000600082015250565b60006125ec601983611905565b91506125f7826125b6565b602082019050919050565b6000602082019050818103600083015261261b816125df565b9050919050565b7f4552433732313a207472616e7366657220746f206e6f6e20455243373231526560008201527f63656976657220696d706c656d656e7465720000000000000000000000000000602082015250565b600061267e603283611905565b915061268982612622565b604082019050919050565b600060208201905081810360008301526126ad81612671565b9050919050565b7f4e487b7100000000000000000000000000000000000000000000000000000000600052601260045260246000fd5b60006126ee826119b5565b91506126f9836119b5565b925082612709576127086126b4565b5b828204905092915050565b600061271f826119b5565b915061272a836119b5565b92508261273a576127396126b4565b5b828206905092915050565b7f4e487b7100000000000000000000000000000000000000000000000000000000600052603260045260246000fd5b7f7b2273657276696365223a22457a65792d4e4654000000000000000000000000600082015250565b60006127aa60148361221b565b91506127b582612774565b601482019050919050565b7f222c20226465736372697074696f6e223a220000000000000000000000000000600082015250565b60006127f660128361221b565b9150612801826127c0565b601282019050919050565b7f222c202262616e6e65725f696d6167655f75726c223a22222c2022696d61676560008201527f223a220000000000000000000000000000000000000000000000000000000000602082015250565b600061286860238361221b565b91506128738261280c565b602382019050919050565b7f227d000000000000000000000000000000000000000000000000000000000000600082015250565b60006128b460028361221b565b91506128bf8261287e565b600282019050919050565b60006128d58261279d565b91506128e0826127e9565b91506128ec8285612226565b91506128f78261285b565b91506129038284612226565b915061290e826128a7565b91508190509392505050565b7f646174613a6170706c69636174696f6e2f6a736f6e3b6261736536342c000000600082015250565b6000612950601d8361221b565b915061295b8261291a565b601d82019050919050565b600061297182612943565b915061297d8284612226565b915081905092915050565b7f4552433732313a206d696e7420746f20746865207a65726f2061646472657373600082015250565b60006129be602083611905565b91506129c982612988565b602082019050919050565b600060208201905081810360008301526129ed816129b1565b9050919050565b7f4552433732313a20746f6b656e20616c7265616479206d696e74656400000000600082015250565b6000612a2a601c83611905565b9150612a35826129f4565b602082019050919050565b60006020820190508181036000830152612a5981612a1d565b9050919050565b600081519050919050565b600082825260208201905092915050565b6000612a8782612a60565b612a918185612a6b565b9350612aa1818560208601611916565b612aaa81611949565b840191505092915050565b6000608082019050612aca6000830187611a4a565b612ad76020830186611a4a565b612ae46040830185611b33565b8181036060830152612af68184612a7c565b905095945050505050565b600081519050612b108161186b565b92915050565b600060208284031215612b2c57612b2b611835565b5b6000612b3a84828501612b01565b91505092915050565b6000612b4e826119b5565b9150612b59836119b5565b9250817fffffffffffffffffffffffffffffffffffffffffffffffffffffffffffffffff0483118215151615612b9257612b9161227b565b5b82820290509291505056fe4142434445464748494a4b4c4d4e4f505152535455565758595a6162636465666768696a6b6c6d6e6f707172737475767778797a303132333435363738392b2fa26469706673582212208384d8781312ef52f8b89f2553f7c7becbf29e9bac8d9f8e2f554c4bf7ff4ffc64736f6c634300080f0033",
  "immutableReferences": {},
  "source": "// SPDX-License-Identifier: MIT\r\npragma solidity >=0.4.22 <0.9.0;\r\n\r\nimport \"@openzeppelin/contracts/token/ERC721/ERC721.sol\";\r\nimport \"base64-sol/base64.sol\";\r\nimport \"./ezeyNftEvent.sol\";\r\n\r\n\r\ncontract ezeyNFT is ERC721  {\r\n    address private eventContractAddress;\r\n    string internal nameNFT;\r\n    string internal symbolNFT;\r\n    uint internal walletUserID;\r\n\r\n\r\n  uint256 internal tokenCounter;\r\n    constructor(string memory name, string memory symbol,uint walletID) \r\n     ERC721(name,symbol)\r\n    { \r\n    nameNFT= name;\r\n    symbolNFT = symbol;\r\n    walletUserID = walletID;\r\n    eventContractAddress =  0x2Bf63F3dbfdABe7103B1cbD9982Ac62356295B7E;\r\n    tokenCounter = 0;\r\n\r\n     }\r\n  \r\n    function mintNFT(string memory tokenURI,string memory description) external  {\r\n           string memory formatToken = formatTokenURI(tokenURI,description);\r\n          _mint(msg.sender, tokenCounter); \r\n        //   _setTokenURI(tokenCounter,formatToken);\r\n          tokenCounter++;\r\n         ezeyNftEvent(eventContractAddress).newEvent(nameNFT,symbolNFT,tokenURI,description,walletUserID,msg.sender);\r\n\r\n    }\r\n\r\n    function formatTokenURI(string memory imageURI,string memory description) internal pure returns (string memory) {\r\n        return string(\r\n                abi.encodePacked(\r\n                    \"data:application/json;base64,\",\r\n                    Base64.encode(\r\n                        bytes(\r\n                          abi.encodePacked(\r\n                                '{\"service\":\"Ezey-NFT',\r\n                                '\", \"description\":\"',description,'\", \"banner_image_url\":\"\", \"image\":\"',imageURI,'\"}'\r\n                            )\r\n                        )\r\n                    )\r\n                )\r\n            );\r\n    }\r\n\r\n   function tokenCounterNumber()external view returns(uint){\r\n      return tokenCounter; \r\n}\r\n}",
  "sourcePath": "C:\\Users\\Asalef alena\\Desktop\\ezeyNFT\\smart_contract\\contracts\\ezeyNFT.sol",
  "compiler": {
    "name": "solc",
    "version": "0.8.15+commit.e14f2714.Emscripten.clang"
  },
  "schemaVersion": "3.4.8",
  "updatedAt": "2022-10-29T20:46:28.093Z",
  "devdoc": {
    "kind": "dev",
    "methods": {
      "approve(address,uint256)": {
        "details": "See {IERC721-approve}."
      },
      "balanceOf(address)": {
        "details": "See {IERC721-balanceOf}."
      },
      "getApproved(uint256)": {
        "details": "See {IERC721-getApproved}."
      },
      "isApprovedForAll(address,address)": {
        "details": "See {IERC721-isApprovedForAll}."
      },
      "name()": {
        "details": "See {IERC721Metadata-name}."
      },
      "ownerOf(uint256)": {
        "details": "See {IERC721-ownerOf}."
      },
      "safeTransferFrom(address,address,uint256)": {
        "details": "See {IERC721-safeTransferFrom}."
      },
      "safeTransferFrom(address,address,uint256,bytes)": {
        "details": "See {IERC721-safeTransferFrom}."
      },
      "setApprovalForAll(address,bool)": {
        "details": "See {IERC721-setApprovalForAll}."
      },
      "supportsInterface(bytes4)": {
        "details": "See {IERC165-supportsInterface}."
      },
      "symbol()": {
        "details": "See {IERC721Metadata-symbol}."
      },
      "tokenURI(uint256)": {
        "details": "See {IERC721Metadata-tokenURI}."
      },
      "transferFrom(address,address,uint256)": {
        "details": "See {IERC721-transferFrom}."
      }
    },
    "version": 1
  },
  "userdoc": {
    "kind": "user",
    "methods": {},
    "version": 1
  }
}